:10000000CFC009C1EEC0EDC0ECC0EBC0EAC0E9C092
:10001000E8C0E7C0E6C0E5C0E4C0E3C0E2C0E1C0BC
:10002000E0C0DFC0DEC06E616E00696E660009026E
:1000300019000101008032090400000103000000E2
:100040000705810308003212011001FF000008506B
:100050001D32600300010203010C03770069006E8A
:1000600000640079001E0375004900530050002D04
:100070000066006C00610073006800700072006F21
:100080000067001E037700770077002E006E006384
:100090000072006D006E0074002E006F0072006729
:1000A000000403090400407A10F35A00A0724E18AD
:1000B000090010A5D4E80000E87648170000E40B1A
:1000C00054020000CA9A3B000000E1F505000080E0
:1000D000969800000040420F000000A0860100003A
:1000E00000102700000000E803000000006400008A
:1000F0000000000A00000000000100000000002CC9
:1001000076D888DC674F0823DFC1DFAE59E1B1B78D
:1001100096E5E3E453C63AE651997696E8E6C2845A
:1001200026EB898C9B62ED407C6FFCEFBC9C9F4072
:10013000F2BAA56FA5F490055A2AF75C936B6CF997
:10014000676DC11BFCE0E40D47FEF520E6B500D06D
:10015000ED902E0300943577050080841E08000082
:10016000204E0A000000C80C333333330F986E1250
:10017000831141EF8D2114893BE65516CFFEE6DB56
:1001800018D1844B381BF77C1D901DA4BBE42420A0
:100190003284725E228100C9F124ECA1E53D270082
:1001A00011241FBECFE5D4E0DEBFCDBF10E0A0E636
:1001B000B0E0E6E8F2E102C005900D92A63AB10780
:1001C000D9F710E0A6EAB0E001C01D92A53DB10745
:1001D000E1F7F894D4D592D67894CAD593D48FD435
:1001E0004FC80ECFA82FB92F80E090E041E050EA31
:1001F000609530E009C02D9182279795879510F082
:1002000084279527305EC8F36F5FA8F30895EADF6F
:100210008D939D930895CF93CFB7CF93DF93C395DD
:10022000829BE9F7829B11C0829B0FC0829B0DC00D
:10023000829B0BC0829B09C0829B07C0829B05C02A
:10024000829B03C0829B01C083C06F93C091B800A2
:10025000DD27C154DF4F2F9320E400C065E0829B6F
:1002600003C02F916F91DECF0F931F934F9345E5FE
:100270005F9355E53F933BE010E100B304712EC05E
:100280006A95C9F03150D8F100B3047101130BC065
:1002900008942795299320E4555500F46A9569F749
:1002A00001E060B30BC0102F66E02695299320E48F
:1002B000555518F3E2CF0FEF60B30000162F4555E8
:1002C00000F0404066E014710030E2F221F00000DE
:1002D00000B3047103C000B30471A9F0011309C095
:1002E0000894279568F200C06A95A9F700E060B30A
:1002F000E5CF102F66E0269528F20000ECCF10E441
:100300001ABF002719C03B503195C31BD04010E4E1
:100310001ABF0881033C09F10B34F9F02091B600B3
:100320001981110F1213EDCF4A81441F093651F183
:100330000D3211F0013E29F70093BD003F915F910E
:100340004F911F910F912F916F91CAB7C6FD67CF43
:10035000DF91CF91CFBFCF9118952091BD0022237F
:1003600069F31091BB00112339F534303AF1309321
:10037000BB002093B7001091B8003BE0311B3093D5
:10038000B8001CC00091BB000130B4F40AE54F7006
:1003900099F43091600034FD12C000936000CBEA04
:1003A000D0E011C0052710E000C002BB19C005272E
:1003B00010E0221F00C01DC04AE502C032ED432FED
:1003C000C4E1D0E032E011B31461929A02B311BBE0
:1003D00054E120E869E420FF052702BB2795179523
:1003E00000C000001C3FF0F66695A8F7A1F720FFBB
:1003F000052702BB2795179500001C3FC0F62991E1
:100400003A9541F70B7E1091BC00110F02BBC6510B
:10041000D04011F01093B60010E41ABF046011B37D
:100420001B7E402F4B7E55E05A95F1F702BB11BB66
:1004300042BB84CFA3E1B0E0EFE1F2E072C57C0102
:100440005B018A01FC0117821682838181FD03C052
:1004500050C3860105C088248394912C8C0E9D1E68
:10046000F7019381F50193FD859193FF81915F01E0
:10047000882309F43AC3853239F493FD859193FFBB
:1004800081915F01853229F4B70190E06FD6680150
:10049000E0CF412C512C20E02032A8F48B3261F0C7
:1004A00028F4803251F0833271F40BC08D3239F070
:1004B000803349F4216028C02260246025C0286070
:1004C00023C0206121C027FD27C0382F30533A3088
:1004D00078F426FF06C0FAE04F9E300D1124432E1B
:1004E00013C08AE0589E300D1124532E20620CC098
:1004F0008E3221F426FDF9C2206406C08C3611F438
:10050000206802C0883641F4F50193FD859193FF80
:1005100081915F018111C0CF982F9554933018F4C9
:100520002061805E06C0982F9556933008F091C1E7
:100530002F7E26FD02C056E0452E4FE3742E722218
:10054000853619F4F0E47F2A07C0863619F420E8CE
:10055000722A02C041104A9477FE07C03BE334156B
:1005600048F0342C339427E00DC087E0841530F038
:10057000242D07C027E03CE3332E04C027E097E09A
:10058000492E312C680194E0C90ED11CF80160811C
:10059000718182819381032DA401FAD48C01298178
:1005A0002C8720FF02C023FF07C071FC08C072FE29
:1005B00009C080E2682E07C0BDE26B2E04C0ABE22A
:1005C0006A2E01C0612C8C858C7089F1662011F037
:1005D00084E001C083E0851510F0512C0AC0581A40
:1005E00073FC07C0B70180E290E0C0D55A94D1F700
:1005F000F4CF662021F0B701862D90E0B7D53C8579
:1006000033FD03C00AE210E00BC006E210E008C0B0
:1006100071108052B70190E0A9D50F5F1F4F02C043
:1006200080E17822F80184918111F2CF5BC277FEDC
:100630000EC0300E2C8524FF04C08A81813309F45A
:100640003A9413144CF538E0331548F12CC076FC7D
:100650002AC0242D30E02017310744F00C3F8FEFE3
:10066000180724F090E8792A01C04A94442049F000
:10067000E2E0F0E0EC0FFD1FE40DF11D808180331E
:10068000A1F377FE10C0342C3394242D30E00217F0
:10069000130744F4401A07C03324339404C0F8E02D
:1006A0003F2E01C0412C77FE07C0101611063CF406
:1006B00098012F5F3F4F05C025E030E002C021E0E8
:1006C00030E0662011F02F5F3F4F442031F0442D81
:1006D00050E04F5F5F4F240F351F452D50E024172A
:1006E000350714F4521A01C0512C872D897041F43A
:1006F00005C0B70180E290E039D55A945110F9CF86
:10070000662021F0B701862D90E030D573FC08C03B
:1007100005C0B70180E390E029D55A945110F9CF74
:1007200077FE51C0380117FF02C0612C712C1E8664
:100730001D86980123193109388B2F871801261837
:100740003708280C391C642D70E022273327261B1C
:10075000370B3A8B298B3FEF6316730621F4B701F1
:100760008EE290E003D5061517055CF02F853889D9
:100770002615370534F4ED85FE85E20DF31D8181E4
:1007800001C080E331E0631A71082D853E852F5F3B
:100790003F4F3E872D8729893A896216730624F0D8
:1007A000B70190E0E3D4D7CF6016710649F49A817F
:1007B000963328F4953321F43C8534FD01C081E360
:1007C000B70190E044C08A81813319F02C852F7ED7
:1007D0002C87B70190E0CAD4411005C074FE14C044
:1007E00085E490E013C0B7018EE290E0BFD4E2E070
:1007F0006E2EF401E60DF11D6394B701808190E047
:10080000B5D44A94B1F7EACF85E690E0B701AED40B
:1008100017FD06C00115110541F43C8534FF05C0E4
:100820001195019511098DE201C08BE2B70190E0AD
:100830009DD480E303C08F5F0A5011090A3011056F
:10084000D4F7B70190E092D4B701C801C0968ED416
:1008500049C1833631F0833781F0833509F05AC0BE
:1008600023C0680182E0C80ED11CF8018081898311
:1008700066246394712C840113C06801F2E0CF0EEA
:10088000D11CF8010081118126FF03C0642D70E0A6
:1008900002C06FEF7FEFC8012B8B5DD43C012B8929
:1008A0006FE7462E422216C06801F2E0CF0ED11C3F
:1008B000F8010081118126FF03C0642D70E002C0A1
:1008C0006FEF7FEFC8012B8B3BD43C012B8950E8A5
:1008D000452E422A43FC1AC005C0B70180E290E0D1
:1008E00045D45A94852D90E068167906B0F30EC071
:1008F000F80147FC859147FE81918F01B70190E097
:1009000035D451105A94F1E06F1A710861147104D2
:1009100079F7E8C0843611F0893659F5680127FF68
:1009200009C034E0C30ED11CF8016081718182815D
:1009300093810AC0F2E0CF0ED11CF8016081718171
:10094000882777FD8095982F4FE6742E722297FFA7
:1009500009C090958095709561957F4F8F4F9F4FFF
:10096000F0E87F2A2AE030E0A4012CD4682E681831
:1009700046C0853731F43FEE732E72222AE030E014
:1009800024C099EF792E72228F36B9F020F4883581
:1009900009F0ABC00DC0803721F0883709F0A5C041
:1009A00002C020E1722A74FE0BC034E0732A08C032
:1009B00024FF09C086E0782A06C028E030E005C0A0
:1009C00020E130E002C020E132E0680177FE09C09A
:1009D00094E0C90ED11CF8016081718182819381FC
:1009E00008C0F2E0CF0ED11CF8016081718180E077
:1009F00090E0A401E7D3682E6818FFE77F2276FE17
:100A00000BC0072D0E7F641450F474FE0AC072FCF4
:100A100008C0072D0E7E05C0162D072D03C0162D0C
:100A200001C0142D04FF0CC0FE01E60DF11D8081F4
:100A3000803311F4097E08C002FF05C01E5F04C0A8
:100A4000802F867809F01F5F03FD11C000FF0CC0E6
:100A5000462C151548F4450C411A152D05C0B70153
:100A600080E290E083D31F5F1515C8F304C015150D
:100A700010F4511A01C0512C04FF0FC0B70180E3DC
:100A800090E074D302FF1CC001FF03C088E590E032
:100A900002C088E790E0B7010CC0802F867881F013
:100AA00001FD02C080E201C08BE207FD8DE2B701CB
:100AB00090E05CD305C0B70180E390E057D34A943F
:100AC0006414C8F36A94F401E60DF11DB701808146
:100AD00090E04CD36110F6CF05C0B70180E290E002
:100AE00045D35A945110F9CFB4CCF7012681378100
:100AF00002C02FEF3FEFC9016396E2E12EC280E012
:100B000090E008951F93CF93DF936091BB006350F3
:100B100067FDBEC08091B800CCE0D0E0C81BD10911
:100B2000C154DF4F8091B7008D3209F09DC068300D
:100B300009F0ACC083EC8093AB008AE58093600041
:100B40001092A6008881807621F0CE0121D19C01EF
:100B500073C09A811092B4008981811107C01092EC
:100B6000B50084EB90E022E030E062C0853019F4FB
:100B70009093BC0051C0863009F045C08B81813014
:100B800049F487E490E09093BA008093B90022E1A1
:100B900030E035C0823049F48EE290E09093BA00A4
:100BA0008093B90029E130E02AC0833031F59111FA
:100BB00009C081EA90E09093BA008093B90024E0E4
:100BC00030E01DC0913019F483E890E004C0923009
:100BD00049F485E690E09093BA008093B9002EE145
:100BE00030E00DC0933049F489E590E09093BA006D
:100BF0008093B9002CE030E002C020E030E080E4D7
:100C00008093A60019C0883061F0893019F4909360
:100C1000BE0002C08A3041F084EB90E020E030E07A
:100C200007C08EEB90E002C084EB90E021E030E062
:100C30009093BA008093B9002F3F8FEF380749F4A3
:100C4000888187FF02C02E813F8180E88093A600C3
:100C500006C08E819F818217930708F49C01309310
:100C600062002093610012C08091A60087FF0EC031
:100C7000CE01DCD08F3F21F48EE18093600006C06E
:100C8000882321F010926200109261001092BB0044
:100C90008091600084FF5EC080916100909162004D
:100CA0008F3F2FEF920709F455C0BC0189309105A1
:100CB00010F068E070E0861B970B909362008093C1
:100CC00061008091AB0098E889278093AB00162FD4
:100CD000662349F18091A60087FF05C08CEA90E069
:100CE000C1D0182F1EC0E091B900F091BA0086FF64
:100CF0000AC0ACEAB0E0862F8A0F94919D9331969A
:100D00008A13FBCF0AC0EF01ACEAB0E0862F8A0F4E
:100D100099919D93FE018A13FBCFF093BA00E09363
:100D2000B900193070F4612F8CEA90E070DA1C5F22
:100D30001C3071F02FEF3FEF309362002093610081
:100D400007C08FEF9FEF90936200809361001EE1D8
:100D50001093600084E190B3947131F48150D9F71D
:100D60001092BC001092B600DF91CF911F910895B0
:100D700085B7826085BF8BB780648BBF08958091F3
:100D80007D0090917E009093A8008093A700089525
:100D9000CF93DF93DC0111968C911197811109C0DB
:100DA00083E690E09093BA008093B9008AE190E0E6
:100DB0003AC0843059F416968D919C911797909370
:100DC000AA008093A9008FEF9FEF2DC0833059F4C4
:100DD000E091A700F091A8000190F081E02D12961B
:100DE0008C9109951EC0813071F4C091A700D091FB
:100DF000A800EA81FB8112968D919C911397099529
:100E0000998788870EC0823061F48091A700909105
:100E1000A80008969093BA008093B90082E090E011
:100E200002C080E090E0DF91CF9108952091A90069
:100E30003091AA00261B31093093AA002093A90003
:100E400006C0FC012191CF012FB9779BFECF6150E5
:100E5000C0F781E02091A9003091AA00232B09F06E
:100E600080E00895FC01862F962F05C01FB8779B60
:100E7000FECF2FB121939150C8F7089505C0FC0112
:100E800020812FB9779BFECF61507109C0F708957B
:100E9000680F791F07C01FB8779BFECF2FB1FC01E9
:100EA0002193CF0186179707B1F7089529E830E01D
:100EB000E0E0F0E02C5F3F4FD90114974D915C9139
:100EC0008417950720F43196E730F10599F7C29819
:100ED0008CE287BBEE0FFF1FEE0FFF1FE757FF4FA0
:100EE000838180658DB982818EB9808191810895D9
:100EF000882311F0C29A0895C298089584E084BBB3
:100F00008FEF85BB81BB2FE382E49FE021508040BF
:100F10009040E1F700C0000011BA8FEF9FEFC6DFED
:100F200008952F923F924F925F926F927F928F928D
:100F30009F92AF92BF92CF92DF92EF92FF920F9368
:100F40001F93CF93DF93CDB7DEB7CA1BDB0B0FB672
:100F5000F894DEBF0FBECDBF09942A88398848882F
:100F60005F846E847D848C849B84AA84B984C884C5
:100F7000DF80EE80FD800C811B81AA81B981CE0FBC
:100F8000D11D0FB6F894DEBF0FBECDBFED010895A1
:100F9000283008F027E03327DA01990F311D87FD4B
:100FA000916000966105710539F432602E5F3D93C2
:100FB00030E32A95E1F708959F3F30F080387105BE
:100FC000610509F03C5F3C5F3D93913008F080681B
:100FD000911DDF93CF931F930F93FF92EF92192FE1
:100FE000987F9695E92F96959695E90FFF27E15002
:100FF000FF4F99273327EE24FF24A701E70105902F
:101000000894079428F4360FE71EF81E491F511D57
:10101000660F771F881F991F0694A1F70590079404
:1010200028F4E70EF81E491F561FC11D770F881FB1
:10103000991F661F0694A1F70590079428F4F80EEF
:10104000491F561FC71FD11D880F991F661F771F85
:101050000694A1F70590079420F4490F561FC71F67
:10106000D81F990F661F771F881F0694A9F78491D0
:101070001095177041F0D695C79557954795F794F9
:10108000E7941A95C1F7E5EAF0E068941590159198
:1010900035916591959105907FE27395E118F10A7C
:1010A000430B560BC90BD009C0F7E10CF11E431FCF
:1010B000561FC91FD01D7EF4703311F48A95E6CFF8
:1010C000E894015030F0080F0AF40027021708F4E2
:1010D000202F2395022F7A3328F079E37D932A95E8
:1010E000E9F710C07D932A9589F606949795679540
:1010F000379517951794E118F10A430B560BC90B56
:10110000D00998F023957E9173957A3308F070E3B7
:101110007C932013B8F77E9170617D9330F08395B6
:1011200071E37D9370E32A95E1F71124EF90FF902E
:101130000F911F91CF91DF91992787FD9095089589
:10114000FC010590615070400110D8F78095909592
:101150008E0F9F1F0895FC01615070400190011097
:10116000D8F7809590958E0F9F1F08950F931F932A
:10117000CF93DF938C01EB018B8181FD03C00FEFD7
:101180001FEF1AC082FF0DC02E813F818C819D818F
:101190002817390764F4E881F9810193F983E8831A
:1011A00006C0E885F985802F0995892B41F78E8146
:1011B0009F8101969F838E83C801DF91CF911F91FC
:1011C0000F910895FA01AA27283051F1203181F1B9
:1011D000E8946F936E7F6E5F7F4F8F4F9F4FAF4F3F
:1011E000B1E03ED0B4E03CD0670F781F891F9A1F52
:1011F000A11D680F791F8A1F911DA11D6A0F711D06
:10120000811D911DA11D20D009F468943F912AE011
:10121000269F11243019305D3193DEF6CF010895F9
:10122000462F4770405D4193B3E00FD0C9F7F6CF2A
:10123000462F4F70405D4A3318F0495D31FD4052F2
:10124000419302D0A9F7EACFB4E0A6959795879588
:1012500077956795BA95C9F7009761057105089567
:101260009B01AC010A2E0694579547953795279513
:10127000BA95C9F7620F731F841F951FA01D0895AB
:06128000ADC7F894FFCF9A
:101286005AFFFF754953502D666C61736870726F13
:10129600670000050001001027204E01007F00783E
:1012A6000756073E07480710271027010088130036
:1012B60000C4090101E204000171020102380100C3
:0612C600039C0000030080
:00000001FF
